{
  "contractName": "Item",
  "abi": [
    {
      "inputs": [
        {
          "internalType": "contract ItemManager",
          "name": "_parentContract",
          "type": "address"
        },
        {
          "internalType": "uint256",
          "name": "_priceInwei",
          "type": "uint256"
        },
        {
          "internalType": "uint256",
          "name": "_index",
          "type": "uint256"
        }
      ],
      "stateMutability": "nonpayable",
      "type": "constructor"
    },
    {
      "stateMutability": "nonpayable",
      "type": "fallback"
    },
    {
      "inputs": [],
      "name": "index",
      "outputs": [
        {
          "internalType": "uint256",
          "name": "",
          "type": "uint256"
        }
      ],
      "stateMutability": "view",
      "type": "function"
    },
    {
      "inputs": [],
      "name": "priceInwei",
      "outputs": [
        {
          "internalType": "uint256",
          "name": "",
          "type": "uint256"
        }
      ],
      "stateMutability": "view",
      "type": "function"
    },
    {
      "inputs": [],
      "name": "pricePaid",
      "outputs": [
        {
          "internalType": "uint256",
          "name": "",
          "type": "uint256"
        }
      ],
      "stateMutability": "view",
      "type": "function"
    },
    {
      "stateMutability": "payable",
      "type": "receive"
    }
  ],
  "bytecode": "0x608060405234801561001057600080fd5b5060405161077438038061077483398181016040528101906100329190610134565b816000819055508060018190555082600260006101000a81548173ffffffffffffffffffffffffffffffffffffffff021916908373ffffffffffffffffffffffffffffffffffffffff160217905550505050610187565b600080fd5b600073ffffffffffffffffffffffffffffffffffffffff82169050919050565b60006100b98261008e565b9050919050565b60006100cb826100ae565b9050919050565b6100db816100c0565b81146100e657600080fd5b50565b6000815190506100f8816100d2565b92915050565b6000819050919050565b610111816100fe565b811461011c57600080fd5b50565b60008151905061012e81610108565b92915050565b60008060006060848603121561014d5761014c610089565b5b600061015b868287016100e9565b935050602061016c8682870161011f565b925050604061017d8682870161011f565b9150509250925092565b6105de806101966000396000f3fe6080604052600436106100385760003560e01c80632986c0e5146102505780633efd41681461027b57806389794d00146102a657610241565b3661024157600060035414610082576040517f08c379a000000000000000000000000000000000000000000000000000000000815260040161007990610340565b60405180910390fd5b34600054146100c6576040517f08c379a00000000000000000000000000000000000000000000000000000000081526004016100bd906103ac565b60405180910390fd5b34600360008282546100d89190610405565b925050819055506000600260009054906101000a900473ffffffffffffffffffffffffffffffffffffffff1673ffffffffffffffffffffffffffffffffffffffff163460015460405160240161012e919061046a565b6040516020818303038152906040527f800fb83f000000000000000000000000000000000000000000000000000000007bffffffffffffffffffffffffffffffffffffffffffffffffffffffff19166020820180517bffffffffffffffffffffffffffffffffffffffffffffffffffffffff83818316178352505050506040516101b891906104ff565b60006040518083038185875af1925050503d80600081146101f5576040519150601f19603f3d011682016040523d82523d6000602084013e6101fa565b606091505b505090508061023e576040517f08c379a000000000000000000000000000000000000000000000000000000000815260040161023590610588565b60405180910390fd5b50005b34801561024d57600080fd5b50005b34801561025c57600080fd5b506102656102d1565b604051610272919061046a565b60405180910390f35b34801561028757600080fd5b506102906102d7565b60405161029d919061046a565b60405180910390f35b3480156102b257600080fd5b506102bb6102dd565b6040516102c8919061046a565b60405180910390f35b60015481565b60005481565b60035481565b600082825260208201905092915050565b7f6974656d206973207061696420616c7265616479000000000000000000000000600082015250565b600061032a6014836102e3565b9150610335826102f4565b602082019050919050565b600060208201905081810360008301526103598161031d565b9050919050565b7f6f6e6c792066756c6c207061796d656e747320616c6c6f776564000000000000600082015250565b6000610396601a836102e3565b91506103a182610360565b602082019050919050565b600060208201905081810360008301526103c581610389565b9050919050565b6000819050919050565b7f4e487b7100000000000000000000000000000000000000000000000000000000600052601160045260246000fd5b6000610410826103cc565b915061041b836103cc565b9250827fffffffffffffffffffffffffffffffffffffffffffffffffffffffffffffffff038211156104505761044f6103d6565b5b828201905092915050565b610464816103cc565b82525050565b600060208201905061047f600083018461045b565b92915050565b600081519050919050565b600081905092915050565b60005b838110156104b957808201518184015260208101905061049e565b838111156104c8576000848401525b50505050565b60006104d982610485565b6104e38185610490565b93506104f381856020860161049b565b80840191505092915050565b600061050b82846104ce565b915081905092915050565b7f546865207472616e73616374696f6e20776173206e6f7420737563636573736660008201527f756c203b2063616e63656c6c696e670000000000000000000000000000000000602082015250565b6000610572602f836102e3565b915061057d82610516565b604082019050919050565b600060208201905081810360008301526105a181610565565b905091905056fea264697066735822122001254533f991b15a27acfe8c1a4c766a2c54956f9d349bdec4e2de5b7138f2e564736f6c63430008090033",
  "immutableReferences": {},
  "source": "pragma solidity ^0.8.9;\r\n/*contract item{\r\n\r\nuint public priceInwei;\r\n\r\nuint public index;\r\n\r\n\r\n\r\n\r\nItemManager parentContract;\r\n\r\nuint public pricePaid;\r\n\r\n\r\n//uint public pricePaid;\r\n\r\n\r\n\r\n\r\nconstructor(ItemManager _parentContract, uint _priceInwei, uint _index) public {\r\n\r\npriceInwei =_priceInwei;\r\n\r\n\r\n\r\nindex=_index;\r\n\r\nparentContract=_parentContract;\r\n\r\n}\r\n\r\nreceive() external payable{\r\n\r\nrequire(pricePaid==0, \"item is paid already\");\r\n\r\nrequire(priceInwei== msg.value,\"only full payments allowed\");\r\n\r\npricePaid += msg.value;\r\n\r\n(bool success,)=address(parentContract).call{value:msg.value}(abi.encodeWithSignature(\"triggerPayment(uint256)\",index));\r\n\r\nrequire(success, \"The transaction was not successful ; cancelling\");\r\n\r\n}\r\n\r\nfallback() external {}\r\n\r\n}\r\n\r\ncontract ItemManager{\r\n\r\nenum SupplyChainState{Created,Paid, Delivered}\r\n\r\nstruct s_item{\r\n\r\nitem _item;\r\n\r\nstring _identifier;\r\n\r\nuint _itemPrice;\r\n\r\nItemManager.SupplyChainState _State;\r\n\r\n}\r\n\r\nmapping (uint => s_item) public items;\r\n\r\nuint itemIndex;\r\n\r\n\r\n\r\n\r\nevent SupplyChainstep(uint _itemIndex, uint _step, address _itemAddress);\r\n\r\nfunction createItem(string memory _identifier, uint _itemPrice) public{\r\n\r\nitem item = new item(this, _itemPrice,itemIndex);\r\n\r\nitems[itemIndex]._item=item;\r\n\r\nitems[itemIndex]._identifier= _identifier;\r\n\r\nitems[itemIndex]._itemPrice= _itemPrice;\r\n\r\nitems[itemIndex]._State=SupplyChainState.Created;\r\n\r\nemit SupplyChainstep(itemIndex, uint(items[itemIndex]._State), address(item));\r\n\r\nitemIndex++;\r\n\r\n}\r\n\r\nfunction triggerPayment(uint _itemIndex) public payable {\r\n\r\nrequire(items[itemIndex]._itemPrice == msg.value, \"only full payment accepted\");\r\n\r\nrequire(items[itemIndex]._State == SupplyChainState.Created, \"items is further in the chain \");\r\n\r\nitems[itemIndex]._State=SupplyChainState.Paid;\r\n\r\nemit SupplyChainstep(itemIndex, uint(items[itemIndex]._State),address(items[_itemIndex]._item));\r\n\r\n}\r\n\r\nfunction triggerDilivery(uint _itemIndex) public {\r\n\r\nrequire(items[itemIndex]._State == SupplyChainState.Paid, \"items is further in the chain\");\r\n\r\nitems[itemIndex]._State=SupplyChainState.Delivered;\r\n\r\nemit SupplyChainstep(itemIndex, uint(items[itemIndex]._State),address(items[_itemIndex]._item));\r\n\r\n}\r\n\r\n}*/\r\n\r\n\r\n\r\n\r\ncontract Ownable{\r\n    address _owner;\r\n\r\n    constructor() public{\r\n        _owner = msg.sender;\r\n    }\r\n    modifier onlyowner() {\r\n        require(isOwner(), \"Yor are not the owner\");\r\n        _;\r\n    }\r\n    function isOwner() public view returns(bool) {\r\n        return (msg.sender == _owner);\r\n    }\r\n}\r\n\r\ncontract Item{\r\n    uint public priceInwei;\r\n    uint public index;\r\n\r\n    ItemManager parentContract;\r\n\r\n    uint public pricePaid;\r\n\r\n    constructor(ItemManager _parentContract, uint _priceInwei, uint _index) public {\r\n        priceInwei =_priceInwei;\r\n        //uint public pricePaid;\r\n        index=_index;\r\n        parentContract=_parentContract;\r\n    }\r\n    receive() external payable{\r\n        require(pricePaid==0, \"item is paid already\");\r\n        require(priceInwei== msg.value,\"only full payments allowed\");\r\n        pricePaid += msg.value;\r\n        (bool success,)=address(parentContract).call{value:msg.value}(abi.encodeWithSignature(\"triggerPayment(uint256)\",index));\r\n        //(bool success,)=address(parentContract).call.value(msg.value)(abi.encodeWithSignature(\"triggerPayment(uint256)\",index));\r\n        require(success, \"The transaction was not successful ; cancelling\");\r\n    }\r\n    fallback() external {}\r\n}\r\ncontract ItemManager is Ownable{\r\n    enum SupplyChainState{Created,Paid, Delivered}\r\n    struct s_item{\r\n        Item _item;\r\n        string _identifier;\r\n        uint _itemPrice;\r\n        ItemManager.SupplyChainState _State;\r\n    }\r\n    mapping (uint => s_item) public items;\r\n    uint itemIndex;\r\n\r\n    event SupplyChainstep(uint _itemIndex, uint _step, address _itemAddress);\r\n    function createItem(string memory _identifier, uint _itemPrice) public onlyowner{\r\n        Item item = new Item(this, _itemPrice,itemIndex);\r\n        items[itemIndex]._item=item;\r\n        items[itemIndex]._identifier= _identifier;\r\n        items[itemIndex]._itemPrice= _itemPrice;\r\n        items[itemIndex]._State=SupplyChainState.Created;\r\n        emit SupplyChainstep(itemIndex, uint(items[itemIndex]._State), address(item));\r\n        itemIndex++;\r\n    }\r\n    function triggerPayment(uint _itemIndex) public payable {\r\n        require(items[itemIndex]._itemPrice == msg.value, \"only full payment accepted\");\r\n        require(items[itemIndex]._State == SupplyChainState.Created, \"items is further in the chain \");\r\n        items[itemIndex]._State=SupplyChainState.Paid;\r\n        emit SupplyChainstep(itemIndex, uint(items[itemIndex]._State),address(items[_itemIndex]._item));\r\n    }\r\n    function triggerDilivery(uint _itemIndex) public onlyowner {\r\n        require(items[itemIndex]._State == SupplyChainState.Paid, \"items is further in the chain\");\r\n        items[itemIndex]._State=SupplyChainState.Delivered;\r\n        emit SupplyChainstep(itemIndex, uint(items[itemIndex]._State),address(items[_itemIndex]._item));\r\n    }\r\n}\r\n",
  "sourcePath": "C:\\Users\\DELL\\Desktop\\Ethereum\\truffleproject\\contracts\\Item.sol",
  "compiler": {
    "name": "solc",
    "version": "0.8.9+commit.e5eed63a.Emscripten.clang"
  },
  "schemaVersion": "3.4.7",
  "updatedAt": "2022-05-12T05:37:10.947Z",
  "devdoc": {
    "kind": "dev",
    "methods": {},
    "version": 1
  },
  "userdoc": {
    "kind": "user",
    "methods": {},
    "version": 1
  }
}