{
  "contractName": "ItemManager",
  "abi": [
    {
      "anonymous": false,
      "inputs": [
        {
          "indexed": false,
          "internalType": "uint256",
          "name": "_itemIndex",
          "type": "uint256"
        },
        {
          "indexed": false,
          "internalType": "uint256",
          "name": "_step",
          "type": "uint256"
        },
        {
          "indexed": false,
          "internalType": "address",
          "name": "_itemAddress",
          "type": "address"
        }
      ],
      "name": "SupplyChainstep",
      "type": "event"
    },
    {
      "inputs": [],
      "name": "isOwner",
      "outputs": [
        {
          "internalType": "bool",
          "name": "",
          "type": "bool"
        }
      ],
      "stateMutability": "view",
      "type": "function"
    },
    {
      "inputs": [
        {
          "internalType": "uint256",
          "name": "",
          "type": "uint256"
        }
      ],
      "name": "items",
      "outputs": [
        {
          "internalType": "contract Item",
          "name": "_item",
          "type": "address"
        },
        {
          "internalType": "string",
          "name": "_identifier",
          "type": "string"
        },
        {
          "internalType": "uint256",
          "name": "_itemPrice",
          "type": "uint256"
        },
        {
          "internalType": "enum ItemManager.SupplyChainState",
          "name": "_State",
          "type": "uint8"
        }
      ],
      "stateMutability": "view",
      "type": "function"
    },
    {
      "inputs": [
        {
          "internalType": "string",
          "name": "_identifier",
          "type": "string"
        },
        {
          "internalType": "uint256",
          "name": "_itemPrice",
          "type": "uint256"
        }
      ],
      "name": "createItem",
      "outputs": [],
      "stateMutability": "nonpayable",
      "type": "function"
    },
    {
      "inputs": [
        {
          "internalType": "uint256",
          "name": "_itemIndex",
          "type": "uint256"
        }
      ],
      "name": "triggerPayment",
      "outputs": [],
      "stateMutability": "payable",
      "type": "function"
    },
    {
      "inputs": [
        {
          "internalType": "uint256",
          "name": "_itemIndex",
          "type": "uint256"
        }
      ],
      "name": "triggerDilivery",
      "outputs": [],
      "stateMutability": "nonpayable",
      "type": "function"
    }
  ],
  "bytecode": "0x608060405234801561001057600080fd5b50336000806101000a81548173ffffffffffffffffffffffffffffffffffffffff021916908373ffffffffffffffffffffffffffffffffffffffff1602179055506118c8806100606000396000f3fe608060405260043610620000505760003560e01c8063800fb83f14620000555780638c55174214620000755780638f32d59b14620000a3578063bfb231d214620000d3578063e2773ec1146200011a575b600080fd5b6200007360048036038101906200006d919062000965565b62000148565b005b3480156200008257600080fd5b50620000a160048036038101906200009b919062000af9565b6200032f565b005b348015620000b057600080fd5b50620000bb6200053d565b604051620000ca919062000b7c565b60405180910390f35b348015620000e057600080fd5b50620000ff6004803603810190620000f9919062000965565b62000594565b60405162000111949392919062000d48565b60405180910390f35b3480156200012757600080fd5b5062000146600480360381019062000140919062000965565b62000681565b005b346001600060025481526020019081526020016000206002015414620001a5576040517f08c379a00000000000000000000000000000000000000000000000000000000081526004016200019c9062000dec565b60405180910390fd5b60006002811115620001bc57620001bb62000cc8565b5b60016000600254815260200190815260200160002060030160009054906101000a900460ff166002811115620001f757620001f662000cc8565b5b146200023a576040517f08c379a0000000000000000000000000000000000000000000000000000000008152600401620002319062000e5e565b60405180910390fd5b6001806000600254815260200190815260200160002060030160006101000a81548160ff0219169083600281111562000278576200027762000cc8565b5b02179055507f9202d1822908abea1794a4af90a5e0ade0fec2cd1f11cfa702aac0bda6c9e69f60025460016000600254815260200190815260200160002060030160009054906101000a900460ff166002811115620002dc57620002db62000cc8565b5b6001600085815260200190815260200160002060000160009054906101000a900473ffffffffffffffffffffffffffffffffffffffff16604051620003249392919062000ea5565b60405180910390a150565b620003396200053d565b6200037b576040517f08c379a0000000000000000000000000000000000000000000000000000000008152600401620003729062000f32565b60405180910390fd5b60003082600254604051620003909062000858565b6200039e9392919062000f8d565b604051809103906000f080158015620003bb573d6000803e3d6000fd5b5090508060016000600254815260200190815260200160002060000160006101000a81548173ffffffffffffffffffffffffffffffffffffffff021916908373ffffffffffffffffffffffffffffffffffffffff1602179055508260016000600254815260200190815260200160002060010190805190602001906200044392919062000866565b508160016000600254815260200190815260200160002060020181905550600060016000600254815260200190815260200160002060030160006101000a81548160ff02191690836002811115620004a0576200049f62000cc8565b5b02179055507f9202d1822908abea1794a4af90a5e0ade0fec2cd1f11cfa702aac0bda6c9e69f60025460016000600254815260200190815260200160002060030160009054906101000a900460ff16600281111562000504576200050362000cc8565b5b83604051620005169392919062000ea5565b60405180910390a160026000815480929190620005339062000ff9565b9190505550505050565b60008060009054906101000a900473ffffffffffffffffffffffffffffffffffffffff1673ffffffffffffffffffffffffffffffffffffffff163373ffffffffffffffffffffffffffffffffffffffff1614905090565b60016020528060005260406000206000915090508060000160009054906101000a900473ffffffffffffffffffffffffffffffffffffffff1690806001018054620005df9062001076565b80601f01602080910402602001604051908101604052809291908181526020018280546200060d9062001076565b80156200065e5780601f1062000632576101008083540402835291602001916200065e565b820191906000526020600020905b8154815290600101906020018083116200064057829003601f168201915b5050505050908060020154908060030160009054906101000a900460ff16905084565b6200068b6200053d565b620006cd576040517f08c379a0000000000000000000000000000000000000000000000000000000008152600401620006c49062000f32565b60405180910390fd5b60016002811115620006e457620006e362000cc8565b5b60016000600254815260200190815260200160002060030160009054906101000a900460ff1660028111156200071f576200071e62000cc8565b5b1462000762576040517f08c379a00000000000000000000000000000000000000000000000000000000081526004016200075990620010fc565b60405180910390fd5b600260016000600254815260200190815260200160002060030160006101000a81548160ff02191690836002811115620007a157620007a062000cc8565b5b02179055507f9202d1822908abea1794a4af90a5e0ade0fec2cd1f11cfa702aac0bda6c9e69f60025460016000600254815260200190815260200160002060030160009054906101000a900460ff16600281111562000805576200080462000cc8565b5b6001600085815260200190815260200160002060000160009054906101000a900473ffffffffffffffffffffffffffffffffffffffff166040516200084d9392919062000ea5565b60405180910390a150565b610774806200111f83390190565b828054620008749062001076565b90600052602060002090601f016020900481019282620008985760008555620008e4565b82601f10620008b357805160ff1916838001178555620008e4565b82800160010185558215620008e4579182015b82811115620008e3578251825591602001919060010190620008c6565b5b509050620008f39190620008f7565b5090565b5b8082111562000912576000816000905550600101620008f8565b5090565b6000604051905090565b600080fd5b600080fd5b6000819050919050565b6200093f816200092a565b81146200094b57600080fd5b50565b6000813590506200095f8162000934565b92915050565b6000602082840312156200097e576200097d62000920565b5b60006200098e848285016200094e565b91505092915050565b600080fd5b600080fd5b6000601f19601f8301169050919050565b7f4e487b7100000000000000000000000000000000000000000000000000000000600052604160045260246000fd5b620009ec82620009a1565b810181811067ffffffffffffffff8211171562000a0e5762000a0d620009b2565b5b80604052505050565b600062000a2362000916565b905062000a318282620009e1565b919050565b600067ffffffffffffffff82111562000a545762000a53620009b2565b5b62000a5f82620009a1565b9050602081019050919050565b82818337600083830152505050565b600062000a9262000a8c8462000a36565b62000a17565b90508281526020810184848401111562000ab15762000ab06200099c565b5b62000abe84828562000a6c565b509392505050565b600082601f83011262000ade5762000add62000997565b5b813562000af084826020860162000a7b565b91505092915050565b6000806040838503121562000b135762000b1262000920565b5b600083013567ffffffffffffffff81111562000b345762000b3362000925565b5b62000b428582860162000ac6565b925050602062000b55858286016200094e565b9150509250929050565b60008115159050919050565b62000b768162000b5f565b82525050565b600060208201905062000b93600083018462000b6b565b92915050565b600073ffffffffffffffffffffffffffffffffffffffff82169050919050565b6000819050919050565b600062000be462000bde62000bd88462000b99565b62000bb9565b62000b99565b9050919050565b600062000bf88262000bc3565b9050919050565b600062000c0c8262000beb565b9050919050565b62000c1e8162000bff565b82525050565b600081519050919050565b600082825260208201905092915050565b60005b8381101562000c6057808201518184015260208101905062000c43565b8381111562000c70576000848401525b50505050565b600062000c838262000c24565b62000c8f818562000c2f565b935062000ca181856020860162000c40565b62000cac81620009a1565b840191505092915050565b62000cc2816200092a565b82525050565b7f4e487b7100000000000000000000000000000000000000000000000000000000600052602160045260246000fd5b6003811062000d0b5762000d0a62000cc8565b5b50565b600081905062000d1e8262000cf7565b919050565b600062000d308262000d0e565b9050919050565b62000d428162000d23565b82525050565b600060808201905062000d5f600083018762000c13565b818103602083015262000d73818662000c76565b905062000d84604083018562000cb7565b62000d93606083018462000d37565b95945050505050565b7f6f6e6c792066756c6c207061796d656e74206163636570746564000000000000600082015250565b600062000dd4601a8362000c2f565b915062000de18262000d9c565b602082019050919050565b6000602082019050818103600083015262000e078162000dc5565b9050919050565b7f6974656d73206973206675727468657220696e2074686520636861696e200000600082015250565b600062000e46601e8362000c2f565b915062000e538262000e0e565b602082019050919050565b6000602082019050818103600083015262000e798162000e37565b9050919050565b600062000e8d8262000b99565b9050919050565b62000e9f8162000e80565b82525050565b600060608201905062000ebc600083018662000cb7565b62000ecb602083018562000cb7565b62000eda604083018462000e94565b949350505050565b7f596f7220617265206e6f7420746865206f776e65720000000000000000000000600082015250565b600062000f1a60158362000c2f565b915062000f278262000ee2565b602082019050919050565b6000602082019050818103600083015262000f4d8162000f0b565b9050919050565b600062000f618262000bc3565b9050919050565b600062000f758262000f54565b9050919050565b62000f878162000f68565b82525050565b600060608201905062000fa4600083018662000f7c565b62000fb3602083018562000cb7565b62000fc2604083018462000cb7565b949350505050565b7f4e487b7100000000000000000000000000000000000000000000000000000000600052601160045260246000fd5b600062001006826200092a565b91507fffffffffffffffffffffffffffffffffffffffffffffffffffffffffffffffff8214156200103c576200103b62000fca565b5b600182019050919050565b7f4e487b7100000000000000000000000000000000000000000000000000000000600052602260045260246000fd5b600060028204905060018216806200108f57607f821691505b60208210811415620010a657620010a562001047565b5b50919050565b7f6974656d73206973206675727468657220696e2074686520636861696e000000600082015250565b6000620010e4601d8362000c2f565b9150620010f182620010ac565b602082019050919050565b600060208201905081810360008301526200111781620010d5565b905091905056fe608060405234801561001057600080fd5b5060405161077438038061077483398181016040528101906100329190610134565b816000819055508060018190555082600260006101000a81548173ffffffffffffffffffffffffffffffffffffffff021916908373ffffffffffffffffffffffffffffffffffffffff160217905550505050610187565b600080fd5b600073ffffffffffffffffffffffffffffffffffffffff82169050919050565b60006100b98261008e565b9050919050565b60006100cb826100ae565b9050919050565b6100db816100c0565b81146100e657600080fd5b50565b6000815190506100f8816100d2565b92915050565b6000819050919050565b610111816100fe565b811461011c57600080fd5b50565b60008151905061012e81610108565b92915050565b60008060006060848603121561014d5761014c610089565b5b600061015b868287016100e9565b935050602061016c8682870161011f565b925050604061017d8682870161011f565b9150509250925092565b6105de806101966000396000f3fe6080604052600436106100385760003560e01c80632986c0e5146102505780633efd41681461027b57806389794d00146102a657610241565b3661024157600060035414610082576040517f08c379a000000000000000000000000000000000000000000000000000000000815260040161007990610340565b60405180910390fd5b34600054146100c6576040517f08c379a00000000000000000000000000000000000000000000000000000000081526004016100bd906103ac565b60405180910390fd5b34600360008282546100d89190610405565b925050819055506000600260009054906101000a900473ffffffffffffffffffffffffffffffffffffffff1673ffffffffffffffffffffffffffffffffffffffff163460015460405160240161012e919061046a565b6040516020818303038152906040527f800fb83f000000000000000000000000000000000000000000000000000000007bffffffffffffffffffffffffffffffffffffffffffffffffffffffff19166020820180517bffffffffffffffffffffffffffffffffffffffffffffffffffffffff83818316178352505050506040516101b891906104ff565b60006040518083038185875af1925050503d80600081146101f5576040519150601f19603f3d011682016040523d82523d6000602084013e6101fa565b606091505b505090508061023e576040517f08c379a000000000000000000000000000000000000000000000000000000000815260040161023590610588565b60405180910390fd5b50005b34801561024d57600080fd5b50005b34801561025c57600080fd5b506102656102d1565b604051610272919061046a565b60405180910390f35b34801561028757600080fd5b506102906102d7565b60405161029d919061046a565b60405180910390f35b3480156102b257600080fd5b506102bb6102dd565b6040516102c8919061046a565b60405180910390f35b60015481565b60005481565b60035481565b600082825260208201905092915050565b7f6974656d206973207061696420616c7265616479000000000000000000000000600082015250565b600061032a6014836102e3565b9150610335826102f4565b602082019050919050565b600060208201905081810360008301526103598161031d565b9050919050565b7f6f6e6c792066756c6c207061796d656e747320616c6c6f776564000000000000600082015250565b6000610396601a836102e3565b91506103a182610360565b602082019050919050565b600060208201905081810360008301526103c581610389565b9050919050565b6000819050919050565b7f4e487b7100000000000000000000000000000000000000000000000000000000600052601160045260246000fd5b6000610410826103cc565b915061041b836103cc565b9250827fffffffffffffffffffffffffffffffffffffffffffffffffffffffffffffffff038211156104505761044f6103d6565b5b828201905092915050565b610464816103cc565b82525050565b600060208201905061047f600083018461045b565b92915050565b600081519050919050565b600081905092915050565b60005b838110156104b957808201518184015260208101905061049e565b838111156104c8576000848401525b50505050565b60006104d982610485565b6104e38185610490565b93506104f381856020860161049b565b80840191505092915050565b600061050b82846104ce565b915081905092915050565b7f546865207472616e73616374696f6e20776173206e6f7420737563636573736660008201527f756c203b2063616e63656c6c696e670000000000000000000000000000000000602082015250565b6000610572602f836102e3565b915061057d82610516565b604082019050919050565b600060208201905081810360008301526105a181610565565b905091905056fea264697066735822122001254533f991b15a27acfe8c1a4c766a2c54956f9d349bdec4e2de5b7138f2e564736f6c63430008090033a264697066735822122092bcfd55eea9f19129890bc419a514088744cb13de240d19820dbe3b6bf9212664736f6c63430008090033",
  "immutableReferences": {},
  "source": "pragma solidity ^0.8.9;\r\n/*contract item{\r\n\r\nuint public priceInwei;\r\n\r\nuint public index;\r\n\r\n\r\n\r\n\r\nItemManager parentContract;\r\n\r\nuint public pricePaid;\r\n\r\n\r\n//uint public pricePaid;\r\n\r\n\r\n\r\n\r\nconstructor(ItemManager _parentContract, uint _priceInwei, uint _index) public {\r\n\r\npriceInwei =_priceInwei;\r\n\r\n\r\n\r\nindex=_index;\r\n\r\nparentContract=_parentContract;\r\n\r\n}\r\n\r\nreceive() external payable{\r\n\r\nrequire(pricePaid==0, \"item is paid already\");\r\n\r\nrequire(priceInwei== msg.value,\"only full payments allowed\");\r\n\r\npricePaid += msg.value;\r\n\r\n(bool success,)=address(parentContract).call{value:msg.value}(abi.encodeWithSignature(\"triggerPayment(uint256)\",index));\r\n\r\nrequire(success, \"The transaction was not successful ; cancelling\");\r\n\r\n}\r\n\r\nfallback() external {}\r\n\r\n}\r\n\r\ncontract ItemManager{\r\n\r\nenum SupplyChainState{Created,Paid, Delivered}\r\n\r\nstruct s_item{\r\n\r\nitem _item;\r\n\r\nstring _identifier;\r\n\r\nuint _itemPrice;\r\n\r\nItemManager.SupplyChainState _State;\r\n\r\n}\r\n\r\nmapping (uint => s_item) public items;\r\n\r\nuint itemIndex;\r\n\r\n\r\n\r\n\r\nevent SupplyChainstep(uint _itemIndex, uint _step, address _itemAddress);\r\n\r\nfunction createItem(string memory _identifier, uint _itemPrice) public{\r\n\r\nitem item = new item(this, _itemPrice,itemIndex);\r\n\r\nitems[itemIndex]._item=item;\r\n\r\nitems[itemIndex]._identifier= _identifier;\r\n\r\nitems[itemIndex]._itemPrice= _itemPrice;\r\n\r\nitems[itemIndex]._State=SupplyChainState.Created;\r\n\r\nemit SupplyChainstep(itemIndex, uint(items[itemIndex]._State), address(item));\r\n\r\nitemIndex++;\r\n\r\n}\r\n\r\nfunction triggerPayment(uint _itemIndex) public payable {\r\n\r\nrequire(items[itemIndex]._itemPrice == msg.value, \"only full payment accepted\");\r\n\r\nrequire(items[itemIndex]._State == SupplyChainState.Created, \"items is further in the chain \");\r\n\r\nitems[itemIndex]._State=SupplyChainState.Paid;\r\n\r\nemit SupplyChainstep(itemIndex, uint(items[itemIndex]._State),address(items[_itemIndex]._item));\r\n\r\n}\r\n\r\nfunction triggerDilivery(uint _itemIndex) public {\r\n\r\nrequire(items[itemIndex]._State == SupplyChainState.Paid, \"items is further in the chain\");\r\n\r\nitems[itemIndex]._State=SupplyChainState.Delivered;\r\n\r\nemit SupplyChainstep(itemIndex, uint(items[itemIndex]._State),address(items[_itemIndex]._item));\r\n\r\n}\r\n\r\n}*/\r\n\r\n\r\n\r\n\r\ncontract Ownable{\r\n    address _owner;\r\n\r\n    constructor() public{\r\n        _owner = msg.sender;\r\n    }\r\n    modifier onlyowner() {\r\n        require(isOwner(), \"Yor are not the owner\");\r\n        _;\r\n    }\r\n    function isOwner() public view returns(bool) {\r\n        return (msg.sender == _owner);\r\n    }\r\n}\r\n\r\ncontract Item{\r\n    uint public priceInwei;\r\n    uint public index;\r\n\r\n    ItemManager parentContract;\r\n\r\n    uint public pricePaid;\r\n\r\n    constructor(ItemManager _parentContract, uint _priceInwei, uint _index) public {\r\n        priceInwei =_priceInwei;\r\n        //uint public pricePaid;\r\n        index=_index;\r\n        parentContract=_parentContract;\r\n    }\r\n    receive() external payable{\r\n        require(pricePaid==0, \"item is paid already\");\r\n        require(priceInwei== msg.value,\"only full payments allowed\");\r\n        pricePaid += msg.value;\r\n        (bool success,)=address(parentContract).call{value:msg.value}(abi.encodeWithSignature(\"triggerPayment(uint256)\",index));\r\n        //(bool success,)=address(parentContract).call.value(msg.value)(abi.encodeWithSignature(\"triggerPayment(uint256)\",index));\r\n        require(success, \"The transaction was not successful ; cancelling\");\r\n    }\r\n    fallback() external {}\r\n}\r\ncontract ItemManager is Ownable{\r\n    enum SupplyChainState{Created,Paid, Delivered}\r\n    struct s_item{\r\n        Item _item;\r\n        string _identifier;\r\n        uint _itemPrice;\r\n        ItemManager.SupplyChainState _State;\r\n    }\r\n    mapping (uint => s_item) public items;\r\n    uint itemIndex;\r\n\r\n    event SupplyChainstep(uint _itemIndex, uint _step, address _itemAddress);\r\n    function createItem(string memory _identifier, uint _itemPrice) public onlyowner{\r\n        Item item = new Item(this, _itemPrice,itemIndex);\r\n        items[itemIndex]._item=item;\r\n        items[itemIndex]._identifier= _identifier;\r\n        items[itemIndex]._itemPrice= _itemPrice;\r\n        items[itemIndex]._State=SupplyChainState.Created;\r\n        emit SupplyChainstep(itemIndex, uint(items[itemIndex]._State), address(item));\r\n        itemIndex++;\r\n    }\r\n    function triggerPayment(uint _itemIndex) public payable {\r\n        require(items[itemIndex]._itemPrice == msg.value, \"only full payment accepted\");\r\n        require(items[itemIndex]._State == SupplyChainState.Created, \"items is further in the chain \");\r\n        items[itemIndex]._State=SupplyChainState.Paid;\r\n        emit SupplyChainstep(itemIndex, uint(items[itemIndex]._State),address(items[_itemIndex]._item));\r\n    }\r\n    function triggerDilivery(uint _itemIndex) public onlyowner {\r\n        require(items[itemIndex]._State == SupplyChainState.Paid, \"items is further in the chain\");\r\n        items[itemIndex]._State=SupplyChainState.Delivered;\r\n        emit SupplyChainstep(itemIndex, uint(items[itemIndex]._State),address(items[_itemIndex]._item));\r\n    }\r\n}\r\n",
  "sourcePath": "C:\\Users\\DELL\\Desktop\\Ethereum\\truffleproject\\contracts\\Item.sol",
  "compiler": {
    "name": "solc",
    "version": "0.8.9+commit.e5eed63a.Emscripten.clang"
  },
  "schemaVersion": "3.4.7",
  "updatedAt": "2022-05-12T05:37:10.968Z",
  "devdoc": {
    "kind": "dev",
    "methods": {},
    "version": 1
  },
  "userdoc": {
    "kind": "user",
    "methods": {},
    "version": 1
  }
}