{
  "contractName": "Ownable",
  "abi": [
    {
      "inputs": [],
      "stateMutability": "nonpayable",
      "type": "constructor"
    },
    {
      "inputs": [],
      "name": "isOwner",
      "outputs": [
        {
          "internalType": "bool",
          "name": "",
          "type": "bool"
        }
      ],
      "stateMutability": "view",
      "type": "function"
    }
  ],
  "bytecode": "0x608060405234801561001057600080fd5b50336000806101000a81548173ffffffffffffffffffffffffffffffffffffffff021916908373ffffffffffffffffffffffffffffffffffffffff160217905550610106806100606000396000f3fe6080604052348015600f57600080fd5b506004361060285760003560e01c80638f32d59b14602d575b600080fd5b60336047565b604051603e919060b7565b60405180910390f35b60008060009054906101000a900473ffffffffffffffffffffffffffffffffffffffff1673ffffffffffffffffffffffffffffffffffffffff163373ffffffffffffffffffffffffffffffffffffffff1614905090565b60008115159050919050565b60b181609e565b82525050565b600060208201905060ca600083018460aa565b9291505056fea264697066735822122087f769fa0124a9b5e0dbe5e8f00d403ea956129478cd200ecbe1c6a180573e3664736f6c63430008090033",
  "immutableReferences": {},
  "source": "pragma solidity ^0.8.9;\r\n/*contract item{\r\n\r\nuint public priceInwei;\r\n\r\nuint public index;\r\n\r\n\r\n\r\n\r\nItemManager parentContract;\r\n\r\nuint public pricePaid;\r\n\r\n\r\n//uint public pricePaid;\r\n\r\n\r\n\r\n\r\nconstructor(ItemManager _parentContract, uint _priceInwei, uint _index) public {\r\n\r\npriceInwei =_priceInwei;\r\n\r\n\r\n\r\nindex=_index;\r\n\r\nparentContract=_parentContract;\r\n\r\n}\r\n\r\nreceive() external payable{\r\n\r\nrequire(pricePaid==0, \"item is paid already\");\r\n\r\nrequire(priceInwei== msg.value,\"only full payments allowed\");\r\n\r\npricePaid += msg.value;\r\n\r\n(bool success,)=address(parentContract).call{value:msg.value}(abi.encodeWithSignature(\"triggerPayment(uint256)\",index));\r\n\r\nrequire(success, \"The transaction was not successful ; cancelling\");\r\n\r\n}\r\n\r\nfallback() external {}\r\n\r\n}\r\n\r\ncontract ItemManager{\r\n\r\nenum SupplyChainState{Created,Paid, Delivered}\r\n\r\nstruct s_item{\r\n\r\nitem _item;\r\n\r\nstring _identifier;\r\n\r\nuint _itemPrice;\r\n\r\nItemManager.SupplyChainState _State;\r\n\r\n}\r\n\r\nmapping (uint => s_item) public items;\r\n\r\nuint itemIndex;\r\n\r\n\r\n\r\n\r\nevent SupplyChainstep(uint _itemIndex, uint _step, address _itemAddress);\r\n\r\nfunction createItem(string memory _identifier, uint _itemPrice) public{\r\n\r\nitem item = new item(this, _itemPrice,itemIndex);\r\n\r\nitems[itemIndex]._item=item;\r\n\r\nitems[itemIndex]._identifier= _identifier;\r\n\r\nitems[itemIndex]._itemPrice= _itemPrice;\r\n\r\nitems[itemIndex]._State=SupplyChainState.Created;\r\n\r\nemit SupplyChainstep(itemIndex, uint(items[itemIndex]._State), address(item));\r\n\r\nitemIndex++;\r\n\r\n}\r\n\r\nfunction triggerPayment(uint _itemIndex) public payable {\r\n\r\nrequire(items[itemIndex]._itemPrice == msg.value, \"only full payment accepted\");\r\n\r\nrequire(items[itemIndex]._State == SupplyChainState.Created, \"items is further in the chain \");\r\n\r\nitems[itemIndex]._State=SupplyChainState.Paid;\r\n\r\nemit SupplyChainstep(itemIndex, uint(items[itemIndex]._State),address(items[_itemIndex]._item));\r\n\r\n}\r\n\r\nfunction triggerDilivery(uint _itemIndex) public {\r\n\r\nrequire(items[itemIndex]._State == SupplyChainState.Paid, \"items is further in the chain\");\r\n\r\nitems[itemIndex]._State=SupplyChainState.Delivered;\r\n\r\nemit SupplyChainstep(itemIndex, uint(items[itemIndex]._State),address(items[_itemIndex]._item));\r\n\r\n}\r\n\r\n}*/\r\n\r\n\r\n\r\n\r\ncontract Ownable{\r\n    address _owner;\r\n\r\n    constructor() public{\r\n        _owner = msg.sender;\r\n    }\r\n    modifier onlyowner() {\r\n        require(isOwner(), \"Yor are not the owner\");\r\n        _;\r\n    }\r\n    function isOwner() public view returns(bool) {\r\n        return (msg.sender == _owner);\r\n    }\r\n}\r\n\r\ncontract Item{\r\n    uint public priceInwei;\r\n    uint public index;\r\n\r\n    ItemManager parentContract;\r\n\r\n    uint public pricePaid;\r\n\r\n    constructor(ItemManager _parentContract, uint _priceInwei, uint _index) public {\r\n        priceInwei =_priceInwei;\r\n        //uint public pricePaid;\r\n        index=_index;\r\n        parentContract=_parentContract;\r\n    }\r\n    receive() external payable{\r\n        require(pricePaid==0, \"item is paid already\");\r\n        require(priceInwei== msg.value,\"only full payments allowed\");\r\n        pricePaid += msg.value;\r\n        (bool success,)=address(parentContract).call{value:msg.value}(abi.encodeWithSignature(\"triggerPayment(uint256)\",index));\r\n        //(bool success,)=address(parentContract).call.value(msg.value)(abi.encodeWithSignature(\"triggerPayment(uint256)\",index));\r\n        require(success, \"The transaction was not successful ; cancelling\");\r\n    }\r\n    fallback() external {}\r\n}\r\ncontract ItemManager is Ownable{\r\n    enum SupplyChainState{Created,Paid, Delivered}\r\n    struct s_item{\r\n        Item _item;\r\n        string _identifier;\r\n        uint _itemPrice;\r\n        ItemManager.SupplyChainState _State;\r\n    }\r\n    mapping (uint => s_item) public items;\r\n    uint itemIndex;\r\n\r\n    event SupplyChainstep(uint _itemIndex, uint _step, address _itemAddress);\r\n    function createItem(string memory _identifier, uint _itemPrice) public onlyowner{\r\n        Item item = new Item(this, _itemPrice,itemIndex);\r\n        items[itemIndex]._item=item;\r\n        items[itemIndex]._identifier= _identifier;\r\n        items[itemIndex]._itemPrice= _itemPrice;\r\n        items[itemIndex]._State=SupplyChainState.Created;\r\n        emit SupplyChainstep(itemIndex, uint(items[itemIndex]._State), address(item));\r\n        itemIndex++;\r\n    }\r\n    function triggerPayment(uint _itemIndex) public payable {\r\n        require(items[itemIndex]._itemPrice == msg.value, \"only full payment accepted\");\r\n        require(items[itemIndex]._State == SupplyChainState.Created, \"items is further in the chain \");\r\n        items[itemIndex]._State=SupplyChainState.Paid;\r\n        emit SupplyChainstep(itemIndex, uint(items[itemIndex]._State),address(items[_itemIndex]._item));\r\n    }\r\n    function triggerDilivery(uint _itemIndex) public onlyowner {\r\n        require(items[itemIndex]._State == SupplyChainState.Paid, \"items is further in the chain\");\r\n        items[itemIndex]._State=SupplyChainState.Delivered;\r\n        emit SupplyChainstep(itemIndex, uint(items[itemIndex]._State),address(items[_itemIndex]._item));\r\n    }\r\n}\r\n",
  "sourcePath": "C:\\Users\\DELL\\Desktop\\Ethereum\\truffleproject\\contracts\\Item.sol",
  "compiler": {
    "name": "solc",
    "version": "0.8.9+commit.e5eed63a.Emscripten.clang"
  },
  "schemaVersion": "3.4.7",
  "updatedAt": "2022-05-12T05:37:10.981Z",
  "devdoc": {
    "kind": "dev",
    "methods": {},
    "version": 1
  },
  "userdoc": {
    "kind": "user",
    "methods": {},
    "version": 1
  }
}